{
  "address": "0xD7707D4433fd2E36cf27559b9e467455Eb09B567",
  "abi": [
    {
      "inputs": [
        {
          "internalType": "address",
          "name": "_poolManager",
          "type": "address"
        }
      ],
      "stateMutability": "nonpayable",
      "type": "constructor"
    },
    {
      "inputs": [],
      "name": "ValueExceedsUint160Range",
      "type": "error"
    },
    {
      "inputs": [
        {
          "internalType": "address",
          "name": "currency0",
          "type": "address"
        },
        {
          "internalType": "address",
          "name": "currency1",
          "type": "address"
        },
        {
          "internalType": "uint24",
          "name": "fee",
          "type": "uint24"
        },
        {
          "internalType": "int24",
          "name": "tickSpacing",
          "type": "int24"
        },
        {
          "internalType": "int24",
          "name": "tickLower",
          "type": "int24"
        },
        {
          "internalType": "int24",
          "name": "tickUpper",
          "type": "int24"
        },
        {
          "internalType": "uint256",
          "name": "liquidity",
          "type": "uint256"
        },
        {
          "internalType": "uint256",
          "name": "amount0Max",
          "type": "uint256"
        },
        {
          "internalType": "uint256",
          "name": "amount1Max",
          "type": "uint256"
        },
        {
          "internalType": "address",
          "name": "recipient",
          "type": "address"
        }
      ],
      "name": "encodeMint",
      "outputs": [
        {
          "internalType": "bytes",
          "name": "",
          "type": "bytes"
        }
      ],
      "stateMutability": "pure",
      "type": "function"
    },
    {
      "inputs": [
        {
          "internalType": "address",
          "name": "currency0",
          "type": "address"
        },
        {
          "internalType": "address",
          "name": "currency1",
          "type": "address"
        },
        {
          "internalType": "uint24",
          "name": "fee",
          "type": "uint24"
        },
        {
          "internalType": "int24",
          "name": "tickSpacing",
          "type": "int24"
        },
        {
          "internalType": "int24",
          "name": "tickLower",
          "type": "int24"
        },
        {
          "internalType": "int24",
          "name": "tickUpper",
          "type": "int24"
        },
        {
          "internalType": "uint256",
          "name": "amount0Max",
          "type": "uint256"
        },
        {
          "internalType": "uint256",
          "name": "amount1Max",
          "type": "uint256"
        },
        {
          "internalType": "address",
          "name": "recipient",
          "type": "address"
        }
      ],
      "name": "encodeMintFromDeltas",
      "outputs": [
        {
          "internalType": "bytes",
          "name": "",
          "type": "bytes"
        }
      ],
      "stateMutability": "view",
      "type": "function"
    },
    {
      "inputs": [
        {
          "internalType": "address",
          "name": "currency0",
          "type": "address"
        },
        {
          "internalType": "address",
          "name": "currency1",
          "type": "address"
        },
        {
          "internalType": "uint24",
          "name": "fee",
          "type": "uint24"
        },
        {
          "internalType": "int24",
          "name": "tickSpacing",
          "type": "int24"
        },
        {
          "internalType": "int24",
          "name": "tickLower",
          "type": "int24"
        },
        {
          "internalType": "int24",
          "name": "tickUpper",
          "type": "int24"
        },
        {
          "internalType": "uint256",
          "name": "amount0Max",
          "type": "uint256"
        },
        {
          "internalType": "uint256",
          "name": "amount1Max",
          "type": "uint256"
        },
        {
          "internalType": "address",
          "name": "recipient",
          "type": "address"
        },
        {
          "internalType": "address",
          "name": "hooks",
          "type": "address"
        }
      ],
      "name": "encodeMintFromDeltasWithHooks",
      "outputs": [
        {
          "internalType": "bytes",
          "name": "",
          "type": "bytes"
        }
      ],
      "stateMutability": "view",
      "type": "function"
    },
    {
      "inputs": [
        {
          "internalType": "address",
          "name": "currency0",
          "type": "address"
        },
        {
          "internalType": "address",
          "name": "currency1",
          "type": "address"
        },
        {
          "internalType": "uint24",
          "name": "fee",
          "type": "uint24"
        },
        {
          "internalType": "int24",
          "name": "tickSpacing",
          "type": "int24"
        },
        {
          "internalType": "int24",
          "name": "tickLower",
          "type": "int24"
        },
        {
          "internalType": "int24",
          "name": "tickUpper",
          "type": "int24"
        },
        {
          "internalType": "uint256",
          "name": "liquidity",
          "type": "uint256"
        },
        {
          "internalType": "uint256",
          "name": "amount0Max",
          "type": "uint256"
        },
        {
          "internalType": "uint256",
          "name": "amount1Max",
          "type": "uint256"
        },
        {
          "internalType": "address",
          "name": "recipient",
          "type": "address"
        },
        {
          "internalType": "address",
          "name": "hooks",
          "type": "address"
        }
      ],
      "name": "encodeMintWithHooks",
      "outputs": [
        {
          "internalType": "bytes",
          "name": "",
          "type": "bytes"
        }
      ],
      "stateMutability": "pure",
      "type": "function"
    },
    {
      "inputs": [
        {
          "components": [
            {
              "internalType": "Currency",
              "name": "currency0",
              "type": "address"
            },
            {
              "internalType": "Currency",
              "name": "currency1",
              "type": "address"
            },
            {
              "internalType": "uint24",
              "name": "fee",
              "type": "uint24"
            },
            {
              "internalType": "int24",
              "name": "tickSpacing",
              "type": "int24"
            },
            {
              "internalType": "contract IHooks",
              "name": "hooks",
              "type": "address"
            }
          ],
          "internalType": "struct PoolKey",
          "name": "poolKey",
          "type": "tuple"
        },
        {
          "internalType": "int24",
          "name": "tickLower",
          "type": "int24"
        },
        {
          "internalType": "int24",
          "name": "tickUpper",
          "type": "int24"
        },
        {
          "internalType": "uint256",
          "name": "amount0",
          "type": "uint256"
        },
        {
          "internalType": "uint256",
          "name": "amount1",
          "type": "uint256"
        }
      ],
      "name": "getLiquidityForAmounts",
      "outputs": [
        {
          "internalType": "uint128",
          "name": "",
          "type": "uint128"
        }
      ],
      "stateMutability": "view",
      "type": "function"
    },
    {
      "inputs": [
        {
          "internalType": "address",
          "name": "currency0",
          "type": "address"
        },
        {
          "internalType": "address",
          "name": "currency1",
          "type": "address"
        },
        {
          "internalType": "uint24",
          "name": "fee",
          "type": "uint24"
        },
        {
          "internalType": "int24",
          "name": "tickSpacing",
          "type": "int24"
        },
        {
          "internalType": "address",
          "name": "hooks",
          "type": "address"
        }
      ],
      "name": "getPoolKey",
      "outputs": [
        {
          "components": [
            {
              "internalType": "Currency",
              "name": "currency0",
              "type": "address"
            },
            {
              "internalType": "Currency",
              "name": "currency1",
              "type": "address"
            },
            {
              "internalType": "uint24",
              "name": "fee",
              "type": "uint24"
            },
            {
              "internalType": "int24",
              "name": "tickSpacing",
              "type": "int24"
            },
            {
              "internalType": "contract IHooks",
              "name": "hooks",
              "type": "address"
            }
          ],
          "internalType": "struct PoolKey",
          "name": "",
          "type": "tuple"
        }
      ],
      "stateMutability": "pure",
      "type": "function"
    },
    {
      "inputs": [],
      "name": "poolManager",
      "outputs": [
        {
          "internalType": "contract IPoolManager",
          "name": "",
          "type": "address"
        }
      ],
      "stateMutability": "view",
      "type": "function"
    },
    {
      "inputs": [
        {
          "internalType": "uint256",
          "name": "input",
          "type": "uint256"
        }
      ],
      "name": "uint256ToUint128",
      "outputs": [
        {
          "internalType": "uint128",
          "name": "",
          "type": "uint128"
        }
      ],
      "stateMutability": "pure",
      "type": "function"
    },
    {
      "inputs": [
        {
          "internalType": "uint256",
          "name": "input",
          "type": "uint256"
        }
      ],
      "name": "uint256ToUint160",
      "outputs": [
        {
          "internalType": "uint160",
          "name": "",
          "type": "uint160"
        }
      ],
      "stateMutability": "pure",
      "type": "function"
    }
  ],
  "transactionHash": "0x2bf563dcd6f9d632b4fcadd7cd43776aed6076092513b5ae6650ee041ef30890",
  "args": [
    "0x000000000004444c5dc75cB358380D2e3dE08A90"
  ],
  "numDeployments": 3,
  "solcInputHash": "0d0bcff70a6bf51f4b36852fcda2cb7d",
  "bytecode": "0x60a060405234801561001057600080fd5b5060405161152c38038061152c83398101604081905261002f91610040565b6001600160a01b0316608052610070565b60006020828403121561005257600080fd5b81516001600160a01b038116811461006957600080fd5b9392505050565b60805161149a610092600039600081816101ae01526104af015261149a6000f3fe608060405234801561001057600080fd5b50600436106100a35760003560e01c806366a274dc11610076578063a78234511161005b578063a782345114610183578063ac06ac7814610196578063dc4c90d3146101a957600080fd5b806366a274dc1461013c57806398b8f4d51461017057600080fd5b806307d32085146100a857806310513be2146100d157806325544ff6146101095780635eb78d401461011c575b600080fd5b6100bb6100b6366004610db5565b6101d0565b6040516100c89190610ebb565b60405180910390f35b6100e46100df366004610ece565b6101f3565b60405173ffffffffffffffffffffffffffffffffffffffff90911681526020016100c8565b6100bb610117366004610ee7565b610247565b61012f61012a366004610fa8565b6103df565b6040516100c89190611015565b61014f61014a366004611078565b610487565b6040516fffffffffffffffffffffffffffffffff90911681526020016100c8565b61014f61017e366004610ece565b610502565b6100bb610191366004611172565b61054e565b6100bb6101a436600461121f565b610573565b6100e47f000000000000000000000000000000000000000000000000000000000000000081565b60606101e58a8a8a8a8a8a8a8a8a6000610573565b9a9950505050505050505050565b600073ffffffffffffffffffffffffffffffffffffffff821115610243576040517f8bced22400000000000000000000000000000000000000000000000000000000815260040160405180910390fd5b5090565b604080517f020000000000000000000000000000000000000000000000000000000000000060208201527f0d00000000000000000000000000000000000000000000000000000000000000602182015281516002818303810182526022830181815260828401909452606093919260009291906042015b60608152602001906001900390816102be5790505090506102e28e8e8e8e886103df565b8a8a8a6102ee8b610502565b6102f78b610502565b604080516020808201835260008252915161031b989796959493928e9291016112c2565b6040516020818303038152906040528160008151811061033d5761033d61138c565b60200260200101819052508d8d60405160200161037d92919073ffffffffffffffffffffffffffffffffffffffff92831681529116602082015260400190565b6040516020818303038152906040528160018151811061039f5761039f61138c565b602002602001018190525081816040516020016103bd9291906113bb565b604051602081830303815290604052925050509b9a5050505050505050505050565b6040805160a0810182526000808252602082018190529181018290526060810182905260808101919091526040518060a001604052808773ffffffffffffffffffffffffffffffffffffffff1681526020018673ffffffffffffffffffffffffffffffffffffffff1681526020018562ffffff1681526020018460020b81526020018373ffffffffffffffffffffffffffffffffffffffff1681525090505b95945050505050565b6000806104d56104988860a0902090565b73ffffffffffffffffffffffffffffffffffffffff7f000000000000000000000000000000000000000000000000000000000000000016906105c7565b50505090506104f7816104e7886106b2565b6104f0886106b2565b87876109b1565b979650505050505050565b60006fffffffffffffffffffffffffffffffff821115610243576040517f8bced22400000000000000000000000000000000000000000000000000000000815260040160405180910390fd5b60606105648b8b8b8b8b8b8b8b8b8b6000610247565b9b9a5050505050505050505050565b606060006105906105878d8d8d8d886103df565b89898989610487565b90506105b78c8c8c8c8c8c876fffffffffffffffffffffffffffffffff168d8d8d8d610247565b9c9b505050505050505050505050565b60008060008060006105d886610ad3565b6040517f1e2eaeaf0000000000000000000000000000000000000000000000000000000081526004810182905290915060009073ffffffffffffffffffffffffffffffffffffffff891690631e2eaeaf90602401602060405180830381865afa158015610649573d6000803e3d6000fd5b505050506040513d601f19601f8201168201806040525081019061066d919061144b565b905073ffffffffffffffffffffffffffffffffffffffff811695508060a01c60020b945062ffffff8160b81c16935062ffffff8160d01c169250505092959194509250565b60020b600060ff82901d80830118620d89e88111156106f5576106f57f8b86327a0000000000000000000000000000000000000000000000000000000084610b10565b7001fffcb933bd6fad37aa2d162d1a594001600182160270010000000000000000000000000000000018600282161561073e576ffff97272373d413259a46990580e213a0260801c5b600482161561075d576ffff2e50f5f656932ef12357cf3c7fdcc0260801c5b600882161561077c576fffe5caca7e10e4e61c3624eaa0941cd00260801c5b601082161561079b576fffcb9843d60f6159c9db58835c9266440260801c5b60208216156107ba576fff973b41fa98c081472e6896dfb254c00260801c5b60408216156107d9576fff2ea16466c96a3843ec78b326b528610260801c5b60808216156107f8576ffe5dee046a99a2a811c461f1969c30530260801c5b610100821615610818576ffcbe86c7900a88aedcffc83b479aa3a40260801c5b610200821615610838576ff987a7253ac413176f2b074cf7815e540260801c5b610400821615610858576ff3392b0822b70005940c7a398e4b70f30260801c5b610800821615610878576fe7159475a2c29b7443b29c7fa6e889d90260801c5b611000821615610898576fd097f3bdfd2022b8845ad8f792aa58250260801c5b6120008216156108b8576fa9f746462d870fdf8a65dc1f90e061e50260801c5b6140008216156108d8576f70d869a156d2a1b890bb3df62baf32f70260801c5b6180008216156108f8576f31be135f97d08fd981231505542fcfa60260801c5b62010000821615610919576f09aa508b5b7a84e1c677de54f3e99bc90260801c5b62020000821615610939576e5d6af8dedb81196699c329225ee6040260801c5b62040000821615610958576d2216e584f5fa1ea926041bedfe980260801c5b62080000821615610975576b048a170391f7dc42444e8fa20260801c5b60008413156109a1577fffffffffffffffffffffffffffffffffffffffffffffffffffffffffffffffff045b63ffffffff0160201c9392505050565b60008373ffffffffffffffffffffffffffffffffffffffff168573ffffffffffffffffffffffffffffffffffffffff1611156109eb579293925b8473ffffffffffffffffffffffffffffffffffffffff168673ffffffffffffffffffffffffffffffffffffffff1611610a3057610a29858585610b21565b905061047e565b8373ffffffffffffffffffffffffffffffffffffffff168673ffffffffffffffffffffffffffffffffffffffff161015610abe576000610a71878686610b21565b90506000610a80878986610bd9565b9050806fffffffffffffffffffffffffffffffff16826fffffffffffffffffffffffffffffffff1610610ab35780610ab5565b815b9250505061047e565b610ac9858584610bd9565b9695505050505050565b604051600090610af3908390600690602001918252602082015260400190565b604051602081830303815290604052805190602001209050919050565b816000528060020b60045260246000fd5b60008273ffffffffffffffffffffffffffffffffffffffff168473ffffffffffffffffffffffffffffffffffffffff161115610b5b579192915b6000610ba18573ffffffffffffffffffffffffffffffffffffffff168573ffffffffffffffffffffffffffffffffffffffff166c01000000000000000000000000610c4e565b9050610bce610bc9848388880373ffffffffffffffffffffffffffffffffffffffff16610c4e565b610d0e565b9150505b9392505050565b60008273ffffffffffffffffffffffffffffffffffffffff168473ffffffffffffffffffffffffffffffffffffffff161115610c13579192915b610c46610bc9836c0100000000000000000000000087870373ffffffffffffffffffffffffffffffffffffffff16610c4e565b949350505050565b6000838302817fffffffffffffffffffffffffffffffffffffffffffffffffffffffffffffffff85870982811083820303915050808411610c8e57600080fd5b80600003610ca157508290049050610bd2565b6000848688096000868103871696879004966002600389028118808a02820302808a02820302808a02820302808a02820302808a02820302808a02909103029181900381900460010186841190950394909402919094039290920491909117919091029150509392505050565b806fffffffffffffffffffffffffffffffff81168114610d5157610d517f93dafdf100000000000000000000000000000000000000000000000000000000610d56565b919050565b8060005260046000fd5b73ffffffffffffffffffffffffffffffffffffffff81168114610d8257600080fd5b50565b8035610d5181610d60565b803562ffffff81168114610d5157600080fd5b8035600281900b8114610d5157600080fd5b60008060008060008060008060006101208a8c031215610dd457600080fd5b8935610ddf81610d60565b985060208a0135610def81610d60565b9750610dfd60408b01610d90565b9650610e0b60608b01610da3565b9550610e1960808b01610da3565b9450610e2760a08b01610da3565b935060c08a0135925060e08a013591506101008a0135610e4681610d60565b809150509295985092959850929598565b6000815180845260005b81811015610e7d57602081850181015186830182015201610e61565b5060006020828601015260207fffffffffffffffffffffffffffffffffffffffffffffffffffffffffffffffe0601f83011685010191505092915050565b602081526000610bd26020830184610e57565b600060208284031215610ee057600080fd5b5035919050565b60008060008060008060008060008060006101608c8e031215610f0957600080fd5b8b35610f1481610d60565b9a5060208c0135610f2481610d60565b9950610f3260408d01610d90565b9850610f4060608d01610da3565b9750610f4e60808d01610da3565b9650610f5c60a08d01610da3565b955060c08c0135945060e08c013593506101008c013592506101208c0135610f8381610d60565b91506101408c0135610f9481610d60565b809150509295989b509295989b9093969950565b600080600080600060a08688031215610fc057600080fd5b8535610fcb81610d60565b94506020860135610fdb81610d60565b9350610fe960408701610d90565b9250610ff760608701610da3565b9150608086013561100781610d60565b809150509295509295909350565b60a08101611072828473ffffffffffffffffffffffffffffffffffffffff80825116835280602083015116602084015262ffffff6040830151166040840152606082015160020b6060840152806080830151166080840152505050565b92915050565b600080600080600085870361012081121561109257600080fd5b60a08112156110a057600080fd5b5060405160a0810181811067ffffffffffffffff821117156110eb577f4e487b7100000000000000000000000000000000000000000000000000000000600052604160045260246000fd5b6040526110f787610d85565b815261110560208801610d85565b602082015261111660408801610d90565b604082015261112760608801610da3565b606082015261113860808801610d85565b6080820152945061114b60a08701610da3565b935061115960c08701610da3565b9497939650939460e08101359450610100013592915050565b6000806000806000806000806000806101408b8d03121561119257600080fd5b8a3561119d81610d60565b995060208b01356111ad81610d60565b98506111bb60408c01610d90565b97506111c960608c01610da3565b96506111d760808c01610da3565b95506111e560a08c01610da3565b945060c08b0135935060e08b013592506101008b013591506101208b013561120c81610d60565b809150509295989b9194979a5092959850565b6000806000806000806000806000806101408b8d03121561123f57600080fd5b8a3561124a81610d60565b995060208b013561125a81610d60565b985061126860408c01610d90565b975061127660608c01610da3565b965061128460808c01610da3565b955061129260a08c01610da3565b945060c08b0135935060e08b013592506101008b01356112b181610d60565b91506101208b013561120c81610d60565b6000610180611320838c73ffffffffffffffffffffffffffffffffffffffff80825116835280602083015116602084015262ffffff6040830151166040840152606082015160020b6060840152806080830151166080840152505050565b8960020b60a08401528860020b60c08401528760e08401526fffffffffffffffffffffffffffffffff8088166101008501528087166101208501525073ffffffffffffffffffffffffffffffffffffffff85166101408401528061016084015261056481840185610e57565b7f4e487b7100000000000000000000000000000000000000000000000000000000600052603260045260246000fd5b6040815260006113ce6040830185610e57565b6020838203818501528185518084528284019150828160051b85010183880160005b8381101561143c577fffffffffffffffffffffffffffffffffffffffffffffffffffffffffffffffe087840301855261142a838351610e57565b948601949250908501906001016113f0565b50909998505050505050505050565b60006020828403121561145d57600080fd5b505191905056fea2646970667358221220a9ddf5e590d8556d0f9b04059386982a18d2cd707b811ad29b612de703810d4764736f6c63430008180033",
  "devdoc": {
    "kind": "dev",
    "methods": {},
    "version": 1
  },
  "userdoc": {
    "kind": "user",
    "methods": {},
    "version": 1
  },
  "storageLayout": {
    "storage": [],
    "types": null
  }
}